:020000040800F2
:10000000C0260020ED020008F5020008F7020008F3
:10001000F9020008FB020008FD02000800000000D1
:10002000000000000000000000000000FF020008C7
:100030000103000800000000030300084D2A000827
:100040000703000807030008070300080703000868
:1000500007030008070300085522000819230008B9
:100060003D230008612300088523000807030008DA
:100070000703000807030008070300080703000838
:100080000703000807030008070300080703000828
:10009000070300080703000807030008A923000856
:1000A00007030008312B00080703000807030008B6
:1000B0007D2B0008A92B0008D92B00080703000896
:1000C00007030008070300080703000807030008E8
:1000D0000703000885370008913700089D3700089E
:1000E0007922000807030008070300080703000837
:1000F000992C0008070300080703000807030008FD
:1001000007030008E1280008092C0008070300087D
:100110000703000807030008392C0008692C0008B1
:100120000703000807030008070300080703000887
:100130000703000807030008070300080703000877
:100140000703000807030008070300080703000867
:100150000703000807030008070300080703000857
:100160000703000807030008070300080703000847
:100170000703000807030008070300080703000837
:10018000070300080703000800F002F800F09BF8DE
:100190000AA090E8000C82448344AAF10107DA45E2
:1001A00001D100F090F8AFF2090EBAE80F0013F099
:1001B000010F18BFFB1A43F00103184768C800007D
:1001C00088C80000103A24BF78C878C1FAD852070E
:1001D00024BF30C830C144BF04680C6070470000C1
:1001E0000023002400250026103A28BF78C1FBD840
:1001F000520728BF30C148BF0B6070476E2900F01E
:10020000B384702901F00D8066290AF07A8065298F
:100210000AF0778067290AF074806129AFF30080C3
:1002200003681B0A28BF41F08001692900F0D081D2
:10023000642900F0CD81752900F0CA816F2900F092
:100240009A87782900F0D987E92900F03587E429D1
:1002500000F03287F52900F02F87EF2900F097870B
:10026000F82900F0D8870368DB0928BF41F0800136
:10027000632901F0EB80732901F0F080E32901F09C
:10028000FB80F32901F00081002070471FB50AF0C0
:1002900033F89DE8030000F09DFB00F077FB0400BD
:1002A0000020002109F0FCFF401C606000200021BC
:1002B0000AF00CF8E06000F053FB1FBD10B5002001
:1002C00000F0BAFF10BD01F0D6F91146FFF7DEFFCE
:1002D00009F0ECFD01F0F8F903B4FFF7EFFF03BC00
:1002E00001F0C2F972B6704762B67047094880479C
:1002F00009480047FEE7FEE7FEE7FEE7FEE7FEE708
:10030000FEE7FEE7FEE7FEE704480549054A064B1F
:1003100070470000D52A000889010008C01F00208E
:10032000C0260020C0220020C022002010B500F00E
:100330002DFB001D10BD00BF699F000070B5064673
:1003400000F020FB056806F10B0020F00704B44222
:100350009CBF002070BD2B466A68BAB11068A042ED
:1003600010D304F1080188423CBF5068586007D39D
:100370005168101941601168091B016058601460D0
:10038000101D70BD13465268002AE7D12146284649
:1003900000F00CFB0028DED170BD70B50446051FCF
:1003A00000F0F0FA0068002C14BF446870BD002C07
:1003B00018BFAC423CBF20466468F8D301680A18F5
:1003C000AA4218BF456003D12A680546114401605E
:1003D00028684119A1421CBF6C6070BD61686960EA
:1003E00021680844286070BD53EA020C00F069805F
:1003F0002DE9F04B4FF00006002B1FBFB3FA83F539
:1004000003FA05F424FA05F65E4012BF1643B2FA69
:1004100082F502FA05F4C5F120051EBF22FA05FC9B
:1004200044EA0C04203556EA044C4FEA144418BF41
:10043000641C4FF000084FF00009904271EB030C70
:1004400039D3002919BFB1FA81F701FA07F6B0FADA
:1004500080F700FA07F6C7F120071EBF20FA07FC55
:1004600046EA0C062037B6FBF4FCA7EB0507103F65
:1004700007F01F0BCBF120060CFA0BFB2CFA06F64B
:1004800044BFB3460026202FA4BF5E464FF0000BAA
:100490005BEA060C08BF4FF0010B19EB0B09ABFB35
:1004A000027C48EB0608C01B06FB02CC0BFB03CC0E
:1004B00071EB0C01C1E70B46024641464846BDE8D8
:1004C000F08B13B54FF000004FF00001AFF3008048
:1004D000BDE81C40704710B54C1084EA530404D5A5
:1004E0004042C1F1000138BF491E1B4204D55242AF
:1004F000C3F1000338BF5B1EFFF776FF14F0804F97
:1005000004D04042C1F1000138BF491E14F0004F31
:1005100004D05242C3F1000338BF5B1E10BD00007F
:100520007CB51D4616460C00009001D02044401EAC
:10053000074B7B442A4669460190304600F03DFD5A
:1005400005461CB10020694600F04AFD28467CBDE6
:10055000B50A00000FB41CB5084B06AA7B446946D7
:100560000090059800F029FD04460020694600F03F
:1005700037FD20461CBC5DF814FB0000810A00001A
:1005800070B5044685690068C10601D5302600E0D3
:100590002026C00707D070BDD4E90121304690471E
:1005A000206A401C20626D1EF6D570BD70B50446F1
:1005B00085690078C00707D170BDD4E901212020EA
:1005C0009047206A401C20626D1EF6D570BD000069
:1005D0002DE9F0410646002410687529314616A51C
:1005E00010D000F02DFA002802DA404213A507E0EF
:1005F00031688A0701D512A502E0490704D511A583
:10060000012401E000F025FA00210A2206F1240766
:1006100009E0B0FBF2FCB0FBF2F302FB1C0030304F
:1006200078541846491C0028F3D123462A46304600
:10063000BDE8F04100F03FBA000000002D000000CE
:100640002B000000200000002DE9F05F89460446E1
:100650004FF0000ADFF874B1FB44C0F820A0204638
:10066000E1688847002874D0252806D0D4E9012104
:100670009047206A401C2062F1E700265F46204632
:10068000E16888472028054607DB312D05D2781917
:1006900010F8200C08B10643F1E7B00701D526F0A9
:1006A0000406C4F81CA00027C4F818A02A2D09D0FD
:1006B000284608F0DBF838B304EB8708303DC8F86B
:1006C000185019E059F8041B204604EB8702916189
:1006D000E1688847012F054618D1E069002820DA33
:1006E00026F020061DE0D8F8180000EB800005EB8E
:1006F00040003038C8F818002046E16888470546B1
:1007000008F0B4F80028EED1012F0AD02E2D08D120
:100710002046E16888477F1C0546022F46F02006E8
:10072000C4DBA069002803DA404246F00106A0615C
:10073000F00701D026F010066C2D0BD0682D09D0E3
:100740004C2D39D06A2D35D0742D35D07A2D33D03B
:1007500016E038E0E1682F4620468847B842054653
:1007600009D16C2F26D04FF48060E1680643204603
:100770008847054604E06C2F1AD04FF4807006437A
:100780000DB3A5F14100192802D8203546F40066C2
:100790004A462946204626604E46FFF72FFD80B187
:1007A00001280BD0F61D26F0070000F1080956E7D6
:1007B0004020E4E78020D8E70020D6E706F10409CE
:1007C0004DE7284652E7206ABDE8F09F90C0000040
:1007D0002DE9F041074615460E461020FFF7AEFD05
:1007E00004000AD06760C4E9026500F0D7F8016828
:1007F000216004600020BDE8F0810120FBE7032AAE
:1008000040F2308010F0030C00F0158011F8013B2D
:10081000BCF1020F624498BF11F801CB00F8013B14
:1008200038BF11F8013BA2F1040298BF00F801CBD8
:1008300038BF00F8013B11F0030300F02585083AAA
:10084000C0F0088051F8043B083A51F804CBA0E806
:100850000810F5E7121D5CBF51F8043B40F8043B5B
:10086000AFF30080D20724BF11F8013B11F801CB90
:1008700048BF11F8012B24BF00F8013B00F801CB61
:1008800048BF00F8012B70474FF0000200B5134637
:1008900094469646203922BFA0E80C50A0E80C50A0
:1008A000B1F12001BFF4F7AF090728BFA0E80C5051
:1008B00048BF0CC05DF804EB890028BF40F8042B4A
:1008C00008BF704748BF20F8022B11F0804F18BFB7
:1008D00000F8012B704700004FF0013C50F8042B4A
:1008E00051F8043B9A4221D1A2EB0C03934313EA43
:1008F000CC1317D150F8042B51F8043B9A4215D170
:10090000A2EB0C03934313EACC130BD150F8042B46
:1009100051F8043B9A4209D1A2EB0C03934313EA2A
:10092000CC13DBD04FF00000704700BFD01A01BAE3
:10093000B1FA81F101F0180122FA01F0CB40C1F1C6
:100940002001DBB2C0B2C01A2CFA01F3D11A9143D4
:1009500011EAC311E6D17047704770477047000035
:1009600070B5064C7C44064D7D4403E0206820446D
:100970008047241DAC42F9D170BD000008C20000C0
:1009800024C2000000487047641F002000487047E0
:100990007C1F002000487047901F002000487047CF
:1009A000941F0020704770477047704738B5044661
:1009B0000A4600206946AFF30080002808BF38BD12
:1009C00002460099204600F097FC012038BD012026
:1009D00000F0F5BDF8B5AFF30080054600200C46E9
:1009E000102000BF0646A819A0420DD9324669461C
:1009F0000020AFF30080070008BF00F0E0FD009882
:100A0000A04218BF0546C419FFF7BCFF05600746A2
:100A1000F01D20F007004619284600F00AF8B442FD
:100A200008BFF8BDA21B31463868BDE8F84000F0A9
:100A300063BC00210160C0E90110704710207047BD
:100A400009684A0501D540B27047C905FCD500B216
:100A5000704709684A0501D5C0B27047C905FCD581
:100A600080B2704770B50C460546012A05D028783B
:100A7000800600D5EA69002302E0012305E05B1C43
:100A8000934202D2E05C0028F9D1A869E618C01AA6
:100A9000A861286A184428622846FFF771FD04E01F
:100AA000D5E9012114F8010B9047B442F8D3284648
:100AB000FFF77CFD70BD2DE9F0470D469946924643
:100AC000044600F124080168880604D5E06921F095
:100AD0001001216000E00120A84201DD471B00E079
:100AE0000027A1697A1902EB0900081AA061207891
:100AF000C00602D42046FFF743FD002608E0D4E9F3
:100B000001211AF806009047206A401C761C2062DA
:100B10004E45F4DB2078C0060AD52046FFF730FDAD
:100B200006E0D4E9012130209047206A401C206271
:100B3000381EA7F10107F4DC07E0D4E9012118F819
:100B400005009047206A401C2062281EA5F101057F
:100B5000F3DC2046FFF72AFD2078000602D50220AC
:100B6000BDE8F0870120FBE711680268006A5305C1
:100B700001D508700AE0D30501D5088006E0130608
:100B800003D5C217C1E9000200E0086001207047E8
:100B900070472DE9FF4F0C461E464FF0FF378BB0D4
:100BA000D2E90001DDF860800A908A46C1F30A5557
:100BB00005B93D46002108464FF00000BAF1000F8C
:100BC00000F4400005DA00EB80004FF4400101EA38
:100BD00050004FEA9059B9F1010F00DDB9460A986B
:100BE00050EA4A000ED044F61050A5F2FF354543B6
:100BF0002F14B8F1000F1ED07542291E1EDDC9F159
:100C000000021CE0B8F1010F4FF0000001D03021CC
:100C100003E0F24305E02154401CB042FBDB3046C8
:100C20000022002121540B99C1F80880C1E900205D
:100C30000FB0BDE8F08FBD1B6D1CDEE74A4600DA41
:100C4000694206A800F024FC06AB93E8070003AB5A
:100C500083E8070050460A9900F0D0FD8DE80700B0
:100C6000A0F500501F3800900398002D0ADD42F2D5
:100C70001F014A460844002303A90390684601F077
:100C800039F809E0A0F500504A461F38002303A9AF
:100C90000390684601F043F88DE807000004000C5B
:100CA00003D04FF0FF30410800E01046B8F1000FCC
:100CB00003D00022009215461EE0751E05D400F0F8
:100CC00035FB303262556D1EF9D5B346012208431B
:100CD00002D000227F1C04E02078302801D10022BD
:100CE0007F1E002A099784D01DE0112D07DA00F03D
:100CF0001DFB303262556D1C50EA0102F5D10843EC
:100D000002D00098C8B10EE00021681E05E0235C07
:100D1000625C63542254401E491C8142F7DBAB469F
:100D2000A81B401E0990002004F80B000B98099A9C
:100D3000C0F80880C0E9002B7AE711264FF00008C0
:100D400057E72DE9F04F88460446D21D22F00701EF
:100D500091B0D1E90001CDE90A0107F0BBFC0246E0
:100D60000B98C00F01D02D2007E02068810701D526
:100D70002B2002E0202101EAC000032A099001D0C3
:100D8000072A05DB03464146204600F015FB0BE130
:100D90002078800601D5E06900E00620B8F1650FF3
:100DA000814606D0B8F1660F18D0B8F1670F70D140
:100DB00031E00020B9F1110F009001DB112301E0B7
:100DC00009F101030AAA01A90CA8FFF7E2FEDDE977
:100DD0000C70002609F10105834647E001204B46CF
:100DE00000904FF000470AAA01A90CA8FFF7D1FE16
:100DF000DDE90DB00C995D46002610B909F101003E
:100E00000D18B9EB050003D4C0F1FF3609F1010557
:100E1000A5EB09002BE0B9F1010F01DA4FF0010950
:100E20000020B9F1110F0090484601DD112300E0C8
:100E300003460AAA01A90CA8FFF7ABFEDDE90C7076
:100E40004D4600268346207800070AD4AB4500DAD9
:100E50005D4601A8012D04DD411911F8011C30295E
:100E600007D04F4502DA17F1040F04DA0120824659
:100E70000FE06D1EEEE7002F02DCED1B3E4403E0A9
:100E8000781CA84200DD7D1CB81B00F1010A4FF060
:100E900000472078000703D4AA4501DB4FF0FF3A52
:100EA0000021B7F1004F0DF143088DF8431024D015
:100EB00002202B23002F01DA7F422D230A21021E5C
:100EC000A0F1010000DC5FB197FBF1FC97FBF1F2B0
:100ED00001FB1C7C17460CF1300C08F801CDEEE745
:100EE000A8F1010003702188090501D5452100E022
:100EF0006521A0F1010800F8011C09980FA9A1EBD8
:100F00000807FF1D00B10120411901EBEA70A1693A
:100F10003844081A401EA0612078C00602D420463A
:100F2000FFF72EFB099828B1D4E901219047206AE8
:100F3000401C20622078C00622D52046FFF720FB07
:100F40001EE0002E04DBB34502DD01A8805D00E059
:100F50003020D4E901219047206A401C2062761C91
:100F6000AAF101005FEA000A0AD1FFF70FFDC0688D
:100F70000168405CD4E901219047206A401C20624E
:100F8000281EA5F10105DCDC07E0D4E9012118F8F1
:100F9000010B9047206A401C2062381EA7F1010710
:100FA000F3DC2046FFF702FB032011B041E600000E
:100FB00001694A1C02610878704700B58FB0CDE91D
:100FC00001310021059105497944CDE9031011460D
:100FD0006846FFF739FB0FB000BD0000E5FFFFFFDB
:100FE0000A6802F8010B0A607047D1E900239A42AF
:100FF00002D2531C0B601070704700002DE9FF5F98
:1010000015468A460446DFF8AC80F8440027D8E944
:1010100000103E46CDE9001010E03AF816106A467E
:1010200002A800F0A7FA411C07D02178890603D551
:10103000E269391891420DD80744761C2078800661
:1010400002D5E069B84205DDAE42E6DB3AF81600AB
:101050000028E2D1A069C01BA0612046FFF790FAEA
:10106000D8E90010CDE90010002017E03AF8181078
:101070006A4602A800F07EFAB0F1FF3F81460BD02D
:1010800000250DF1080B05E0D4E901211BF805004E
:1010900090476D1C4D45F7D308F10100B0428046E2
:1010A000E4DB206A384420622046FFF77FFABDE87F
:1010B000FF9F0000F2B600002DE9F0418046D21DEE
:1010C00022F007020025D2E90002F52915A614D066
:1010D000011E72F1000106DA0023D0EB030063EB7E
:1010E000020211A608E0D8F800108B0701D50FA660
:1010F00002E0490701D50EA601251146002408F19A
:10110000240704E000F012F930323A55641C50EA2A
:101110000102F7D12B46324621464046BDE8F04158
:10112000FFF7C9BC000000002D0000002B000000EC
:101130002000000030B4002100F1240408E002F097
:101140000705D208303542EA4372DB086554491C72
:1011500052EA0305F3D10468002310A2250707D53E
:10116000A40600D421B1C46901230DA2641EC46188
:1011700030BCFFF7A0BC10B5044621461068FFF74D
:1011800068FC02462046BDE810400023D2E7D21D8D
:1011900022F00701D1E90023CCE7000000000000A5
:1011A00030000000F0B40D460188090502D5214C3D
:1011B0007C4402E01F4C7C440E34002100F12406E4
:1011C00008E002F00F071209E75D42EA03721B090B
:1011D0007754491C52EA0307F3D10278002312071F
:1011E00004D5702D06D009B1022311342246F0BC7B
:1011F000FFF761BC01231034F8E770B504460D46D3
:1012000021461068FFF725FC024629462046BDE826
:1012100070400023C6E7D21D22F00703D3E9002364
:10122000C0E70368126843F0200303600823C3612A
:101230000023B7E754B500002DE9F0410646FFF75B
:10124000ADFB8046454613E016B1E068B0420ED1D2
:1012500020682860D4E90101D8F80070884720464A
:10126000FFF79BF8D8F80000B842EBD100E0254624
:101270002C68002CE8D1BDE8F08110B500F0A6F98B
:10128000BDE8104000F096B910B5203AC0F00B80D0
:10129000B1E81850203AA0E81850B1E81850A0E87A
:1012A0001850BFF4F5AF5FEA027C24BFB1E81850D4
:1012B000A0E8185044BF18C918C0BDE810405FEA44
:1012C000827C24BF51F8043B40F8043B08BF7047C0
:1012D000D20728BF31F8023B48BF11F8012B28BFC5
:1012E00020F8023B48BF00F8012B704700F086B998
:1012F000004870475C1F0020034640688C46002869
:1013000018BF88423CBF03464068F8D318681844A9
:10131000884207D00CF1030020F00700001D411A9D
:10132000521A0146081D0A60FFF737B830B5B0F110
:101330000A024FEA900E71F100034EEA817EB0EB93
:101340000E0061EB91014FEA101E4EEA017E10EB98
:101350000E0041EB11114FEA102E4EEA016E10EB18
:101360000E0041EB11214FEA104E4EEA014E10EBF8
:101370000E0041EB1141401841F100014FEAD0004D
:1013800040EA41704FEAD10110EB80054FEA810439
:1013900044EA907444EB01046D1944EB0404521BBD
:1013A000A3414FF0000348BF0A3200D530BD401CB6
:1013B00041F1000130BD00002DE9F0411F46044617
:1013C00003260168072A01F4006004DB08B116A5B2
:1013D00005E016A503E008B115A500E015A521F06C
:1013E00010002060A069C01EA0610FB1401EA06166
:1013F0002046FFF7C5F84FB1D4E9012138469047A0
:10140000206A401C2062C01C206206E0206AFAE7C5
:10141000D4E9012115F8010B9047761EF8D2204639
:10142000FFF7C4F8BDE8F0814E414E006E616E00DA
:10143000494E4600696E660010B5436913B1AFF3BB
:10144000008001E0FFF70EFB012010BD127800F1D3
:1014500024010A7000224A700122EDE711684FF062
:10146000FF32E9E710B5436913B1AFF3008001E043
:10147000FFF7C4FD012010BD128800F12401828411
:101480000022C2840122EDE711684FF0FF32E9E744
:101490002DE9F047814616468AB0354878440DC894
:1014A0008DE80D0032487844801C03AC0DC884E8F8
:1014B0000D0041F69B300844372190FBF1F290FB80
:1014C000F1F5A5F1800501FB12041B3C02D5644235
:1014D000012000E00020DFF898A080460027FA44B1
:1014E000AAF1BE0A0EE0E0070AD03246684607EBD2
:1014F000470101230AEB810100F011FC8DE8070090
:1015000064107F1C002CEED1194F7F44AE3F19E0D0
:10151000E80715D007EB04100DF1180A90E80E004B
:101520008AE80E00C068F04201D19819089032464E
:10153000012306A903A800F0F2FB03AB83E8070030
:101540006D10641C002DE3D14FF001033246694653
:10155000B8F1000F03A802D000F0CCFB01E000F0CE
:10156000DEFBC9E90001C9F808200AB0BDE8F08730
:101570000CB3000070B516460C460546FEF7D6FEC5
:10158000036893F80101012806D0FF2C0FD8185DDD
:1015900068B101202C7070BDD3F807013246214696
:1015A00003F2071303442846BDE8704018474FF084
:1015B000FF3070BD002801D000F056B8704710B55C
:1015C00000F0B0F8BDE81040FFF7F4BF10B50021FF
:1015D00002A000F08DF8012010BD000053494750D3
:1015E00056464E3A20507572652076697274756160
:1015F0006C20666E2063616C6C65640010B500F051
:101600000EF8016919B100220261884701E0806883
:10161000804700F062F8000010B500F05EF870B589
:1016200000F04EF804680546A4B92020FEF786FEB7
:10163000040011D0094900202C60C4E900010849C8
:10164000A1602073206160610649A06109B100F0CA
:1016500091F8E061204670BD00F03FF80000000006
:10166000191600080000000001491820ABBEFEE773
:101670002600020070477546FFF73AFEAE460500A9
:101680006946534620F00700854618B020B5FEF79E
:101690003BFEBDE820404FF000064FF000074FF042
:1016A00000084FF0000B21F00701AC46ACE8C00980
:1016B000ACE8C009ACE8C009ACE8C0098D46704789
:1016C00000487047981F002010B50446AFF3008013
:1016D0002046BDE81040FEF7FFBD10B5002000F029
:1016E0006EF8FEF7EBFDBDE810400120FFF7BCBF30
:1016F00070B505460C460A2000E06D1C00F058F855
:1017000035B128780028F8D102E0641C00F050F8C8
:1017100014B120780028F8D1BDE870400A2000F00C
:1017200047B8000010B5012805D0002103A0FFF73D
:10173000DFFF012010BD09A1F8E70000534947521F
:10174000544D454D3A204F7574206F662068656191
:1017500070206D656D6F7279000000003A20486559
:101760006170206D656D6F727920636F7272757034
:101770007465640010B58820FEF7E0FD002801D0F4
:101780000021017010BD802902D808B1017809B18B
:1017900000207047012100F8081B704718B100F1C4
:1017A0000802914201D0002070470021017070476B
:1017B00008B569468DF800000320ABBE08BD10B522
:1017C00000F004F8BDE81040FFF7F4BE10B50021AA
:1017D00002A0FFF78DFF012010BD000053494741D3
:1017E0004252543A2041626E6F726D616C20746592
:1017F000726D696E6174696F6E0000005FEA400C83
:1018000008BF91F0000F4FEA8C234FEAC12243EA50
:1018100051514FEA1C5018BF00F5F0404FEA30001C
:1018200018BF41F000415FEA6C5C00F02980BCF118
:10183000FF3F08BF40F080407047130C06BF120402
:101840004FF0100C4FF0000C130E04BF12020CF1FD
:10185000080C130F04BF12010CF1040C930F04BF0A
:1018600092000CF1020CD30F04BF52000CF1010CDA
:1018700011464FF00002A0F11F00A0EB0C007047D2
:1018800011F0004F08BF704731F000413FF4D5AF71
:101890000B0C06BF09044FF0100C4FF0000C0B0EA0
:1018A00004BF09020CF1080C0B0F04BF09010CF175
:1018B000040C8B0F04BF89000CF1020CCB0F04BF8A
:1018C00049000CF1010CCCF12003A0EB0C0022FA32
:1018D00003F302FA0CF241EA030100F10100704740
:1018E00020F07F4C80EA030023F07F47ACEB070336
:1018F00003F57C5300F0004003F1FF032DE980491C
:101900004FEA154B09B44FEA144325EA0B4E24EA7B
:1019100003480FF2042606EB132749083E785FEAD6
:10192000320203FB0667C7F5000707FB06F64FEA1E
:1019300054374FEAD64606F1020607FB066CCCF197
:10194000005C4FEA1C472CEA074C07FB06F40CFB33
:1019500006F504EB15464FEA961634BF00204FF00B
:1019600000404FEAD13706FB07FC4FEA1C4C0CFB4A
:101970000BF7D21B03FB0CF761EB07010CFB0EF717
:10198000B0EB074072EB17420CFB08F734BFA2EB39
:101990000742B2EB074261EB17414FEA0C444FEAB2
:1019A000910706FB07FC4FEA1C4C0CFB0BF7B0EB56
:1019B000C74072EB573203FB0CF734BFA2EBC742B0
:1019C000B2EBC74261EB57310CFB0EF7B0EBC7002F
:1019D00072EB57720CFB08F734BFA2EBC702B2EBF5
:1019E000C70261EB5771039F4FEA816141EA92118F
:1019F00004EBCC044FEAD1374FEA826206FB07FCC6
:101A000042EA90124FEA80604FEA1C4C0CFB0BF745
:101A1000D21B03FB0CF761EB07010CFB0EF7B0EBDD
:101A2000074072EB17420CFB08F734BFA2EB0742EA
:101A3000B2EB074261EB17414FEA8C554FEA910731
:101A400004EB9C2406FB07FC4FEA1C4C0CFB0BF739
:101A5000B0EBC74072EB573203FB0CF734BFA2EB7D
:101A6000C742B2EBC74261EB57310CFB0EF7B0EB4C
:101A7000C70072EB57720CFB08F734BFA2EBC7022A
:101A8000B2EBC70261EB577115EB4C254FEA816150
:101A900041EA92114FEA82624FEAD13742EA90124C
:101AA00006FB07FC44F100044FEA80604FEA1C4C3F
:101AB0000CFB0BF7D21B03FB0CF761EB07010CFBD4
:101AC0000EF7B0EB074072EB17420CFB08F734BF80
:101AD000A2EB0742B2EB074261EB174115EB1C1575
:101AE0004FEA813141EA92414FEA823242EA904222
:101AF0004FEA80304FEA0C7644F1000448EA034391
:101B00004EEA0B484FF0000EB2EB080C71EB0307E6
:101B100024BF624639464EEB0E0E4FF0000B001804
:101B2000524149414BEB0B0BB2EB080C71EB030735
:101B30007BF1000B24BF624639464EEB0E0E4FF090
:101B4000000B0018524149414BEB0B0BB2EB080C58
:101B500071EB03077BF1000B24BF624639464EEB65
:101B60000E0E51EA020718BF46F0010616EB0E767C
:101B700055F1000254F1000103D5BDE88901BDE82B
:101B80000088BDE88901BDE80048B619524141EB23
:101B90000101A3F10103704780807F7E7D7C7B7A09
:101BA0007978777676757473727171706F6E6E6D09
:101BB0006C6C6B6A6A6968686766666564646363AF
:101BC00062616160605F5F5E5E5D5D5C5C5B5B5A35
:101BD0005A595958585757565655555554545353A2
:101BE00052525251515050504F4F4F4E4E4D4D4DFD
:101BF0004C4C4C4B4B4B4A4A4A4949494848484748
:101C00004747474646464545454444444443434385
:101C10004342424242414141002B9C4630D477002E
:101C20002BD01CB54FEA370703B44FF010004FF02C
:101C30001001BAF1000F06D0BCF1000FDCBF40F07C
:101C4000080040F008014FF000000FBCBDE8104054
:101C50000BF1010BBBF1010F08BF5FEA170722BFB1
:101C600012F1010211F101014FF0004143F10003B3
:101C700000F0004043EA00007047F9D35708D0E76E
:101C800046EA064613F1400F4FEA16461FDD13F1F0
:101C9000200FDFBF16430A46002120335B42BED02F
:101CA000C3F1200746EA064602FA07F74FEA16464E
:101CB00046EA0706C3F1200722FA03F201FA07F702
:101CC00021FA03F14FF0000342EA0702A7E746EAD0
:101CD000020646EA06464FEA164646EA0106BCBF39
:101CE00046EA0646360C4FF000034FF000024FF074
:101CF000000194E72DE9804C9A46934670B491E830
:101D0000380007C831EA400C48BF34EA430C03D519
:101D1000FFF7E6FDFFF780FFF0BCBDE8008C2DE982
:101D2000804C9A46934670B491E8380007C810F08A
:101D3000804F08BF13F0804F03D100F005F8FFF784
:101D40006BFFF0BCBDE8008C20F07F4780EA030009
:101D500023F07F4C07EB0C03A3F57C5300F000400D
:101D6000A3F1FE0392F0000F00F0B38095F0000F96
:101D700000F077802DE901494FEA11404FEA1446FF
:101D800021EA004800FB06FC24EA064708FB06F6A9
:101D900007FB08F800FB07F718EB06484CEB164C5E
:101DA0004FEA124B18EB07484FEA15464CEB174029
:101DB00022EA0B4E0BFB06FC25EA06470EFB06F655
:101DC00007FB0EFE0BFB07F71EEB064E4CEB164C0B
:101DD0004FF000061EEB074E4CEB174B18EB0B08B1
:101DE00040F1000018EB0E0B58EB000840F100002A
:101DF0008F1A4FF000013CBFC943661B14BFB5EBFF
:101E0000040C00213CBFC943F61B4FEA17444EEABD
:101E10008E0E27EA04454FEA1C4704FB07622CEAB2
:101E2000074C05FB07F70CFB05F604FB0CFC16EB57
:101E3000074642EB174216EB0C4642EB1C421BEBEB
:101E4000060658EB0202414146EA9E0601D5BDE86E
:101E50000189B619524141EB0101A3F10103BDE82B
:101E600001894FEA14454FEA114724EA054621EA61
:101E7000074C05FB07F406FB07F70CFB06F105FB17
:101E80000CFC11EB074144EB17444FEA124711EBEE
:101E90000C4144EB1C4422EA074C05FB07F206FB0D
:101EA00007F70CFB06F605FB0CFC16EB074642EBAE
:101EB000174216EB0C4642EB1C456A1854F1000120
:101EC00048BF7047B619524141EB0101A3F101032C
:101ED000704795F0000F37D04FEA11424FEA144790
:101EE00021EA024624EA074C02FB07F106FB07F74A
:101EF0000CFB06F402FB0CFC14EB074441EB17410E
:101F00004FEA154714EB0C4441EB1C4125EA074C02
:101F100002FB07F506FB07F70CFB06F602FB0CFCC1
:101F200016EB074645EB174516EB0C4645EB1C42F6
:101F3000121951F1000148BF7047B619524141EBE7
:101F40000101A3F1010370474FEA14454FEA11471D
:101F500024EA054621EA074C05FB07F106FB07F7D3
:101F60000CFB06F24FF0000605FB0CFC12EB0742DF
:101F700041EB174112EB0C4251EB1C4148BF70473B
:101F8000921841EB0101A3F10103704770B5264D92
:101F90000446264E687848B90020FF2126F8101024
:101FA000401CC0B21228F9D30120687034B3012C50
:101FB00024D0022C22D0032C20D0042C1ED0052C9F
:101FC0001CD0062C1AD0072C18D0082C16D0092C9F
:101FD00014D00A2C12D00B2C10D00C2C0ED00D2C9F
:101FE0000CD00E2C0AD00F2C08D0102C06D0112C9F
:101FF00004D0122C02D04FF0FF3070BD204600F00C
:1020000017F8401C02D06FF0010070BD287812282C
:1020100002D36FF0020070BD26F81040401CC0B221
:102020002870401E70BD0000600000209C1E002033
:102030000A4910B502460020074B097806E000BFA8
:1020400033F81040944205D0401CC0B28842F7D308
:102050004FF0FF3010BD00009C1E002060000020EB
:102060000029016802D041F0010101E021F00101E5
:10207000016070472DE9F043016821F00101016022
:102080000021016041608160C160016121214161E5
:102090003C493C4A3D251039904202D18D60BDE853
:1020A000F083384A4FF474661832904201D18E6042
:1020B000F5E7344A4FF474173032904201D18F6003
:1020C000EDE7304A4FF0746C4832904202D1C1F8CB
:1020D00008C0E4E72B4B2C4A6033984201D1CA6018
:1020E000DDE7284C294B7834A04201D1CB60D6E7FC
:1020F000DFF89080264C08F19008404501D1CC6073
:10210000CDE7DFF880804FF03D5908F1A808404541
:1021100002D1C1F80C90C2E71E49DFF87880083977
:10212000404501D10D60BAE71A4D1835A84201D1DA
:102130000E60B4E7174D3035A84201D10F60AEE70D
:10214000144D4835A84202D1C1F800C0A7E7114D8F
:1021500010496035091FA84201D10A609FE70D4A66
:102160007832904201D10B6099E70A4A903290424E
:1021700001D10C6093E7074AA83290428FD1C1F891
:1021800000908CE7106002403D000020400F0020CE
:1021900000003D20106402400029016802D041F097
:1021A000200101E021F0200101607047014600207C
:1021B0000968C90700D001207047000030B50368E6
:1021C000124ACC6813400A682243D1E905452C43E2
:1021D0002243CC6922430C6A22434C6A22438C6A14
:1021E00022434C6B22438C6B22431A4302604269A8
:1021F00022F00703D1E90B2422431A4342610A6902
:1022000042604A6882608968C16030BD3F801CF0CE
:1022100070B500F023FC0E484FF47A714FF0FF3593
:102220000068B0FBF1F1491EB1F1807F0AD24FF096
:10223000E02461610F21284600F030FA0020A061FF
:10224000072020612846BDE87040002100F026BA32
:102250004C00002010B5012000F0EAF8002808D05A
:102260000448006800B18047BDE81040012000F03C
:10227000D9B810BDE41E002070B54FF48065284623
:1022800000F0D6F8234C28B1A16A01B1884728464E
:1022900000F0C8F84FF40065284600F0C9F828B1EE
:1022A000E16A01B18847284600F0BCF84FF4805538
:1022B000284600F0BDF828B1216B01B188472846B7
:1022C00000F0B0F84FF40055284600F0B1F828B1FE
:1022D000616B01B18847284600F0A4F84FF48045AF
:1022E000284600F0A5F828B1A16B01B1884728461F
:1022F00000F098F84FF40045284600F099F80028BF
:1023000007D0E16B01B188472846BDE8704000F076
:1023100089B870BDE41E002010B5022000F088F8D6
:10232000002808D00448406800B18047BDE810404C
:10233000022000F077B810BDE41E002010B5042084
:1023400000F076F8002808D00448806800B1804783
:10235000BDE81040042000F065B810BDE41E002068
:1023600010B5082000F064F8002808D00448C068C0
:1023700000B18047BDE81040082000F053B810BD00
:10238000E41E002010B5102000F052F8002808D0FC
:102390000448006900B18047BDE81040102000F0FB
:1023A00041B810BDE41E002070B5202000F040F8B8
:1023B0001B4C28B1606900B18047202000F032F842
:1023C000402000F035F828B1A06900B180474020D6
:1023D00000F028F8802000F02BF828B1E06900B167
:1023E0008047802000F01EF84FF48075284600F0EA
:1023F0001FF828B1216A01B18847284600F012F879
:102400004FF40075284600F013F8002807D0616AE1
:1024100001B188472846BDE8704000F003B870BDA0
:10242000E41E00200149086070470000143C014090
:10243000034A0146002012680A4200D0012070477A
:10244000143C0140024901EB0010808900F002B801
:10245000ECBB0008002102E04008491C89B20128B9
:10246000FAD8C8B27047F0B50023012403270D68DD
:1024700004FA03F21540954242D1D0F800C05E0044
:1024800007FA06F52CEA050CC0F800C091F804C064
:10249000D0F800E00CFA06FC4CEA0E0CC0F800C0C4
:1024A00091F804C0BCF1010F02D0BCF1020F1FD1A2
:1024B000D0F808C02CEA050CC0F808C091F805C097
:1024C000D0F808E00CFA06FC4CEA0E0CC0F808C084
:1024D000D0F804C02CEA020CC0F804C0426891F89D
:1024E00006C00CFA03FC1FFA8CFC42EA0C024260A4
:1024F000C268AA43C260CA79C568B2402A43C260B2
:102500005B1C102BB3D3F0BD4B07DB0E9A40C90800
:1025100010B500EB8100016A0F249C40A1430162C9
:10252000016A1143016210BD7CB504463248844201
:1025300001D1012030E03148844201D102202BE05A
:102540002F48844201D1042026E02E48844201D144
:10255000082021E02C48844201D110201CE02B48A7
:10256000844201D1202017E02948844201D1402033
:1025700012E02848844201D180200DE026488442A0
:1025800001D1801508E02548844201D1401503E0BF
:102590002348844220D10015FAB1012A1FD0022A13
:1025A00020D0032A21D0052A21D0062A21D0072AAB
:1025B00012D10225002600228DF804508DF8053036
:1025C00000918DF806608DF80720012100F0D4F805
:1025D00069462046FFF747FF7CBD0025EBE7002555
:1025E0000122E9E700250222E6E70325E3E70125CA
:1025F000E0E701252E46DEE700000240000402402D
:1026000000080240000C024000100240001402408A
:1026100000180240001C024000200240002402403A
:102620000028024030B50F22C47801780123FCB1A4
:10263000144C246801F1E02104F4E064C4F5E06482
:10264000C4F30724C4F10405E2404478AC40857823
:10265000154025432A0181F80024007800F01F016D
:102660008B404009800000F1E020C0F8003130BD0F
:1026700001F01F0083404809800000F1E020C0F80D
:10268000803130BD0CED00E002490843024908608A
:10269000704700000000FA050CED00E00907090E84
:1026A000002806DA00F00F0000F1E02080F8141D89
:1026B000704700F1E02080F8001470472DE9F047E2
:1026C00017460C460646B02810D2244800EB0615E3
:1026D000686858B1A87B48B144B13FB1DFF8808049
:1026E00004FB07F0D8F80010884202D90020BDE8AA
:1026F000F0870721304607F041FC304600F0B6FB7A
:1027000081463046FFF79EFE01464A462868FFF79D
:10271000FBFED8F800002646B0FBF6F0B0FBF7F45D
:102720001049686888420CD00F49884209D00F4987
:10273000884206D00E49884203D00E49884200D014
:102740006408002100F0D4FA641E761EAB7BA2B2AE
:10275000B1B2686800F060FDA87BC8E7ECBB000878
:102760004C000020000001400004014000400140F6
:102770000044014000480140044A0029116801D08A
:10278000014300E08143116070470000303802408F
:10279000044A0029116801D0014300E0814311601F
:1027A0007047000040380240044A0029116801D0F7
:1027B000014300E08143116070470000203802406F
:1027C000044A0029116801D0014300E081431160EF
:1027D0007047000044380240044A0029116801D0C3
:1027E000014300E08143116070470000243802403B
:1027F00070B5204A1168204C11F00C0104D066100D
:10280000042903D0082903D004601BE0066019E006
:102810001849091F0B68C3F380550B6803F03F0389
:1028200015B1B6FBF3F301E0B4FBF3F30C680968F0
:10283000C4F388146343C1F30141491C4900B3FB4D
:10284000F1F1016011680F2303EA11110B4B5C5C7D
:102850000168E14041601468072505EA94241C5D85
:1028600021FA04F48460126805EA52329A5CD1407D
:10287000C16070BD083802400024F4003C00002014
:102880000149086070470000382C014010B50A4A21
:1028900001681160121D41681160121D116821F05C
:1028A000F703D0E902142143D0E904400443214353
:1028B0001943116010BD0000242C0140034A014659
:1028C000002012680A4200D001207047342C0140D9
:1028D0000248006800F0030070470000002C01402F
:1028E000014803F069BA00009017002030B5094B89
:1028F0001A6847F6FF618A43017D8468C5682143F1
:1029000044682C4321430468006921430143114377
:10291000196030BD042C014010B5084A01681160EF
:10292000121D1168CB0AD0E901142143D0E90340FC
:102930000443DB0221431943116010BD082C014000
:102940000149086070470000002C014000290188FF
:1029500002D041F0400101E021F0400101807047C8
:1029600030B502884C8802F441530A88CD8822434E
:102970008C882C4322430C8922434C8922438C8926
:102980002243CC8922431A430280828B22F40062C4
:102990008283098A018230BD0CB50020274901904D
:1029A00000900A6842F480320A604FF4A0430A683B
:1029B00002F400320092019A521C0192009A12B95C
:1029C000019A9A42F3D10A68920334D5012000900B
:1029D0001A484030026842F080520260184802688B
:1029E00042F4404202601548083002680260026802
:1029F00042F400420260026842F4A0520260031FE7
:102A0000104A1A600A6842F080720A600A689201ED
:102A1000FCD50D4A40F205711160016821F00301F7
:102A20000160016841F0020101600168C1F38101A8
:102A30000229FAD10CBD00900CBD00000038024004
:102A40000070004008544007003C02400248016802
:102A5000491C0160704700006400002070B51A4CEA
:102A600020681A4A10F00C01194804D055100429A6
:102A700003D0082903D002601BE0056019E0124969
:102A8000091F0B68C3F380560B6803F03F0316B1B0
:102A9000B5FBF3F201E0B2FBF3F20B680968C3F394
:102AA00088135A43C1F30141491C4900B2FBF1F1BB
:102AB00001602168064AC1F30311121D515C0268CE
:102AC000CA40026070BD0000083802400024F400D3
:102AD0004C000020124810B5016841F470010160FB
:102AE0001048016841F0010101600E4A00210832DE
:102AF000116002680C4B1A400260031D0B4A1A60F9
:102B0000026822F48022026006480C300160FFF760
:102B100043FF03494FF000608039086010BD00009A
:102B200088ED00E000380240FFFFF6FE1030002480
:102B300070B50F4D0121284600F018FA0D4C30B148
:102B4000216801B188470121284600F0CEF80A4DDE
:102B50000121284600F00AFA002808D0616A01B174
:102B600088472846BDE87040012100F0BEB870BD1E
:102B700000000140241F00200044014010B5012145
:102B80008C07204600F0F2F9002809D0054841687A
:102B900001B188472046BDE81040012100F0A5B8EA
:102BA00010BD0000241F002010B5094C0121204653
:102BB00000F0DCF9002809D00648816801B1884797
:102BC0002046BDE81040012100F08FB810BD000084
:102BD00000040040241F002010B5094C01212046AC
:102BE00000F0C4F9002809D00648C16801B188473F
:102BF0002046BDE81040012100F077B810BD00006C
:102C000000080040241F002010B5094C0121204677
:102C100000F0ACF9002809D00648016901B18847E5
:102C20002046BDE81040012100F05FB810BD000053
:102C3000000C0040241F002010B5094C0121204643
:102C400000F094F9002809D00648416901B188478D
:102C50002046BDE81040012100F047B810BD00003B
:102C600000100040241F002010B5094C012120460F
:102C700000F07CF9002809D00648816901B1884735
:102C80002046BDE81040012100F02FB810BD000023
:102C900000140040241F002070B50F4D012128466C
:102CA00000F064F90D4C30B1E16901B188470121B0
:102CB000284600F01AF80A4D0121284600F056F97E
:102CC000002808D0216B01B188472846BDE8704034
:102CD000012100F00AB870BD00040140241F00204B
:102CE000001C0040C94301827047C94301827047FC
:102CF0000029018802D041F0010101E021F0010129
:102D000001807047002930F8441F02D041F400418F
:102D100001E0C1F30E01018070470000464910B583
:102D2000884206D101210846FFF756FD0021012007
:102D30005BE0B0F1804F09D0404988420DD10121BC
:102D40000220FFF731FD0021022070E0012108463A
:102D5000FFF72AFD0021012069E03949884206D1A8
:102D600001210420FFF720FD002104205FE0354908
:102D7000884206D101210820FFF716FD0021082016
:102D800055E03149884206D101211020FFF70CFDA2
:102D9000002110204BE02D49884206D1012120203E
:102DA000FFF702FD0021202041E02949884206D199
:102DB00001210220FFF710FD0021022015E0254926
:102DC000884202D101210C040AE02349884202D141
:102DD00001214C0404E0214988420AD101218C04DC
:102DE0002046FFF7F9FC00212046BDE81040FFF720
:102DF000F3BC1B49884206D101214020FFF7D4FCD7
:102E00000021402013E01749884206D1012180208B
:102E1000FFF7CAFC0021802009E0134988420AD14B
:102E2000841501212046FFF7BFFC00212046BDE8A4
:102E30001040FFF7B9BC10BD000001400004004085
:102E400000080040000C004000100040001400404A
:102E5000000401400040014000440140004801409E
:102E600000180040001C0040002000402DE9F04FF9
:102E7000314A014602EB0111DFF8C08049680020A9
:102E8000DFF8BCC02F4A304B304CDFF8C4A0DFF86D
:102E9000C4B0314D314E324FDFF8C890414522D099
:102EA000B1F1804F1DD061451FD091421DD0994294
:102EB0001BD04FEAB848414517D0DFF8AC804145F8
:102EC00013D0A14211D051450FD059450DD0A94280
:102ED0000BD0B14209D0B94207D0494529D0BDE84D
:102EE000F08F0120FBE7012003E0614501D10220C2
:102EF00003E0914201D1022003E0994201D1022076
:102F000003E0A14201D1032003E0514501D1032098
:102F100003E0594501D1032003E0A94201D1032078
:102F200003E0B14201D1092001E0B94201D0494595
:102F3000D5D10920D3E70000ECBB00080000014018
:102F40000004004000080040000C00400004014064
:102F5000004001400044014000480140001800408A
:102F6000001C0040002000400014004002460020E9
:102F7000138A92890B4202EA010202D0002A00D091
:102F800001207047002A828901D00A4300E08A4369
:102F90008281704730B5028C22F001020284028CDB
:102FA0008388048B22F0020224F073050C882C43E2
:102FB0008D8915434A882A430C4DA84202D00C4DF6
:102FC000A8420DD122F00805CA8923F440732A4390
:102FD00022F004058A882A430D8A1D434B8A2B431D
:102FE0008380048389684163028430BD000001400E
:102FF00000040140028B22F008020A43028370475A
:1030000070B5028C22F010020284028C8488038B3B
:103010000D8823F4E6464FF6FF7303EA0525354392
:103020008E8922F0200203EA061616434A8803EA34
:1030300002123243104EB04202D0104EB04215D1AF
:1030400022F08006CA8924F4406403EA0212324363
:1030500022F040068A8803EA021232430E8A03EA0B
:10306000860626434C8A03EA84043443848005831D
:1030700089688163028470BD000001400004014042
:10308000028B4FF6FF7322F4006203EA0121114321
:103090000183704770B5028C22F480720284028C26
:1030A0008488838B0D8823F073031D4322F40073FF
:1030B0008E894FF6FF7202EA06261E434B8802EA0B
:1030C00003233343104EB04202D0104EB04215D10C
:1030D00023F40066CB8924F4405402EA03233343EB
:1030E00023F480668B8802EA032333430E8A02EAC4
:1030F000061626434C8A02EA0414344384808583EE
:103100008968C163038470BD000001400004014070
:10311000828B22F008020A438283704770B5028CCA
:1031200022F480520284048C8288838B0D8823F4DD
:10313000E6464FF6FF7303EA0525354324F40056AF
:103140008C8903EA043434434E8803EA0636264366
:10315000084CA04202D0084CA04205D122F4804481
:103160000A8A03EA82122243828085838968016485
:10317000068470BD0000014000040140828B4FF6C0
:10318000FF7322F4006203EA012111438183704737
:10319000018582827047C1627047000030B50288A5
:1031A000164B174C98420DD0A0420BD0B0F1804F77
:1031B00008D0144DA84205D0134DA84202D0134D9B
:1031C000A84203D122F070054A882A43104DA84234
:1031D00006D0104DA84203D022F440750A892A4334
:1031E00002804A68C2620A880285984201D0A042E1
:1031F00001D1897A01860121818230BD0000014020
:10320000000401400004004000080040000C0040A1
:1032100000100040001400402DE9FF4F464D474E7E
:10322000474FDFF82081DFF8209189B092468B4626
:103230000446A84223D0B4F1804F20D043488442B2
:103240001DD0434884421AD04248844217D04FEAE6
:10325000B540844213D04048844210D0B4420ED0CE
:10326000BC420CD044450AD04C4508D03B4884426F
:1032700005D03B48844202D03A48844258D10121CB
:10328000204600F071F80020ADF814A0ADF81C0045
:10329000ADF81600CDF818B005A92046FFF77EFF5F
:1032A0007020ADF800000120ADF802000220ADF85A
:1032B0000C000C98012806D002280DD0032814D049
:1032C000042823D11AE069462046FFF763FE08214F
:1032D0002046FFF78FFE19E069462046FFF790FE73
:1032E00008212046FFF7CCFE10E069462046FFF794
:1032F000D1FE08212046FFF70BFF07E06946204674
:10330000FFF70CFF08212046FFF738FF0121204678
:10331000FFF7EEFCAC4207D0B44205D0BC4203D06C
:10332000444501D04C4503D101212046FFF7EAFC7A
:103330000DB0BDE8F08F0000000001400004014026
:1033400000400140004401400048014000040040AA
:1033500000080040000C004000140040001800402D
:10336000001C004000200040254A904201D101206D
:1033700033E0B0F1804F04D0224A904203D10220C2
:103380003BE0012039E0204A904201D1042034E0A2
:103390001E4A904201D108202FE01D4A904201D1DF
:1033A00010202AE01B4A904201D1202025E01A4A31
:1033B000904201D1022010E0184A904202D14FF40D
:1033C00080300AE0164A904202D14FF4003004E007
:1033D000144A904203D14FF48020FFF7F1B9124A0A
:1033E000904201D1402008E0104A904201D1802053
:1033F00003E00F4A904202D18015FFF7C9B9704728
:10340000000001400004004000080040000C0040A3
:103410000010004000140040000401400040014042
:10342000004401400048014000180040001C0040DA
:10343000002000402DE9FF410E462849044615466C
:1034400025480968264A274B274FDFF8A0C0844249
:1034500008D0944206D09C4204D0BC4202D06445BD
:1034600000D04908844222D0B4F1804F1FD02048B8
:1034700084421CD01F48844219D01F48844216D071
:103480001E48844213D01E48844210D094420ED06D
:103490009C420CD0BC420AD0644508D019488442F2
:1034A00005D01948844202D01848844212D1002E17
:1034B00010D003AB02AA304600F044F903210020EB
:1034C000CDE900012B46BDF80C20BDF808102046C0
:1034D00000F01EF8BDE8FF81000001404C00002014
:1034E0000004014000400140004401400048014008
:1034F0000004004000080040000C004000100040A4
:103500000014004000180040001C00400020004053
:103510002DE9FF5F994692468B46DFF81C81474FA5
:10352000DFF81CC14749484A484B494E04464045CC
:1035300029D0B4F1804F23D0BC4227D0644525D098
:103540008C4223D04FEAB84844451FD0DFF80481AD
:1035500044451BD0DFF80081444517D0944215D074
:103560009C4213D0B44211D0DFF8F08044450DD016
:10357000DFF8EC80444509D03A498C4259D123E028
:1035800001201C2522E00020192504E0BC4202D1C4
:1035900002201D2504E0644502D103201E2504E01D
:1035A0008C4202D10420322504E0944202D108204A
:1035B000182504E09C4202D10920192506E0B442F6
:1035C00002D10A201A2501E0002D32D0264A42F805
:1035D00020902046FFF7A2FB01212046FFF7C4FE02
:1035E000ABF1010101910020AAF10101ADF8001039
:1035F0008DF80A00ADF80800ADF8020069462046D3
:10360000FFF7CCFD8DF80C500E988DF80D000F983B
:103610008DF80E0001208DF80F0003A8FFF702F8C7
:1036200001212046FFF75EFB012211462046FFF7ED
:10363000A9FCBDE8FF9F000000000140000400401D
:1036400000080040000C00400040014000440140E0
:1036500000480140001400400004014000180040F0
:10366000001C004000200040241F00202DE9FC41E8
:103670000D462749044625480968264A264B274E09
:10368000274F844208D0944206D09C4204D0B442D2
:1036900002D0BC4200D04908844222D0B4F1804F0D
:1036A0001FD0204884421CD01F48844219D01F4894
:1036B000844216D01E48844213D01E48844210D043
:1036C00094420ED09C420CD0B4420AD0BC4208D0E6
:1036D0001948844205D01948844202D018488442CF
:1036E00012D101AB6A46284600F02CF8BDF8001054
:1036F0002046491EFFF74FFDBDF804000122401E81
:1037000081B22046FFF744FDBDE8FC810000014086
:103710004C000020000401400040014000440140F2
:10372000004801400004004000080040000C004038
:10373000001000400014004000180040001C004031
:103740000020004010B50D4CB1FBF4F14843C1EB33
:103750000111B0EB410F01D20A210AE00849884269
:1037600002D24FF47A7101E044F62061B0FBF1F12E
:1037700089B2B0FBF1F01180188010BD40420F00FB
:1037800018FCE703014804F01BB800001C1C0020D3
:10379000014804F015B80000B81C0020014804F0EE
:1037A0000FB80000541D00200A0A01219140C943AE
:1037B000018070470029818902D041F4005101E065
:1037C00021F40051818170470246002012880A428C
:1037D00000D00120704730B501F01F020124002500
:1037E000C1F3421304FA02F2012B0FD0022B0FD0C7
:1037F000838A4FEA11210088134204FA01F400EA97
:10380000040001D000B10125284630BD8389F0E7CE
:10381000038AEEE710B5C1F3421301F01F04012142
:10382000A140012B07D0022B07D01430002A0268D8
:1038300005D00A4304E00C30F8E71030F6E78A437D
:10384000026010BD7FB50446008A0D4620F4405149
:10385000E88808432082A08941F20C618843A98846
:103860002A8911436A8902431143A181A08A20F465
:103870004071A8890843A0826846FEF7B9FF1A483C
:10388000844202D01948844201D1039800E0029892
:10389000A189090400EBC00101EB0010296801D5E2
:1038A000490000E08900B0FBF1F26420B2FBF0F1C6
:1038B00009010B096FF018056B4302EB8302A38922
:1038C0001D044FF0320306D503EBC202B2FBF0F049
:1038D00000F0070005E003EB0212B2FBF0F000F08D
:1038E0000F00084320817FBD0010014000140140FB
:1038F0008088C0F308007047C1F3080181807047D9
:10390000FEB500214F4804F041F80A20BE21CDE960
:1039100000104FF6FF74C823232202941421494853
:1039200003F008FB4FF47846052524208DE861005C
:10393000C22328221721434803F0FCFA84208DE893
:103940006100C223552217213E4803F0F3FA2146B5
:103950003C4803F0AFFA01213A4803F0A7FA0E22DF
:103960005A21384804F0F2FA3749364803F031FC5E
:1039700036A1344804F0D4FC0021324803F09AFA0E
:1039800034484FF00101007800282E4808D003F099
:103990008DFA3C221E212B4804F0D8FA2EA107E014
:1039A00003F084FA3C221E21264804F0CFFA2DA110
:1039B000244804F0B5FC244922480C3103F009FCEA
:1039C00064221E211F4804F0C1FA2AA11D4804F0F8
:1039D000BBFC73221E211B4804F0B8FA29A1194828
:1039E00004F0B2FC82221E21164804F0AFFA29A18D
:1039F000144804F0A9FC91221E21124804F0A6FAF2
:103A000028A1104804F0A0FCA0221E210D4804F0BB
:103A10009DFA29A10B4804F097FC01212820CDE94B
:103A200000013523AF22A02126A004F07DFF002154
:103A30002A20CDE900013723AE229F21014803F05F
:103A4000E7FCFEBDC81B002008B5000841626F7589
:103A50007400000027000020566F6C756D65203AD9
:103A6000204F4E00566F6C756D65203A204F4646CC
:103A700000000000446576696365203A506C617906
:103A80006572000056657273696F6E3A76302E303B
:103A90002E330000417574686572203A53756E507C
:103AA000656E6700446174652020203A32322D3102
:103AB000312D3234000000005344203A32392E3781
:103AC00047420000303A2F4361742E6A706700004D
:103AD0002DE9FE4F0D4617460F390AB2DDE90CB449
:103AE00001B29A460E46144804F030FA4FF6FF71C0
:103AF000114803F0DFF901210F4803F0D7F92146FF
:103B00000D4804F021FC00244FF003084FF0050994
:103B10002DB20DE0CDE9009823B22A463146064881
:103B2000CDF808A003F006FA584605F06DF8641CBD
:103B3000BC42EFDBBDE8FE8FC81B0020C91C036F31
:103B4000002221F003018B4204D35A1A0267C26E8D
:103B50001144C166104670472DE9F04F5FF0000236
:103B600050F8404B4FF4B55C50F8405B4FF4B558FB
:103B70000768036CE619E41BEF1A2B4407FB0CF7EC
:103B8000C3EB2737F518A6EB030A07EB040BA4EBEE
:103B9000070950F860CC036E50F8207CACEB0304AE
:103BA000066A9C44F31B3E44ACEB060707FB08F790
:103BB0004FEA27386644E71841F6905C07FB0CF79C
:103BC00041F2511C04FB0CF442F6CF1C03FB0CF336
:103BD0003F13A7EB233305EB060C9B1BAD1BA7EB99
:103BE000243440F880CCA8EB030705660BEB0305F3
:103BF00040F8605CABEB0303036409EB070340F898
:103C0000403CE41BA9EB070303620AEB040340F802
:103C1000203CAAEB0403521C40F87C39082A9FD3AD
:103C20000023DFF818E120384FF4B55C50F8082B7A
:103C30004FF4B55850F8085B02F5004250F8104BAD
:103C400050F8086C1719141BAA1B02FB0CF24FEA60
:103C5000223C7219ACEB020505EB0409A4EB050A42
:103C6000BE18A7EB020B50F8045C50F81CCC50F8BF
:103C70000C2C50F8147CACEB0504AC44D51B3A4436
:103C8000ACEB020707FB08F74FEA273862446719D5
:103C900041F6905C07FB0CF741F2511C04FB0CF45D
:103CA0003F1342F6CF1C05FB0CF5A7EB2535A7EB20
:103CB0002434AD1AA8EB0507A4EB070CB418C4F321
:103CC0000928B21A1EF80880C2F3092201F8078BEE
:103CD0001EF8022001F8062909EB0502C2F30922A9
:103CE00074461EF8022001F8012BA9EB0502C2F36D
:103CF00009221EF802200A710AEB0702C2F3092208
:103D0000A25C01F8022BAAEB0702C2F30922A25C13
:103D10004A700BEB0C02C2F30922A25C01F8012CE1
:103D2000ABEB0C02C2F309221EF802205B1C01F867
:103D3000042B082BFFF478AFBDE8F08FC6A3000872
:103D40002DE9FF4F817B93B0CC00C17B1519CE00CC
:103D5000C1698D4201D8254600E08D1A016A9F197C
:103D60008F4201D8374600E0CF1A417BCD4027FA79
:103D700001F7049715D0A7B1CA40CB405119ADF84F
:103D80003C20491EADF83E10D919ADF84030491E0F
:103D9000ADF84210417B0329416E7BD08B46002158
:103DA00066E0002017B0BDE8F08F816E102E01EBA9
:103DB000C90705D004EB090201EBC202002353E05E
:103DC0004FEA590201EBC20202F58072B9F1080F05
:103DD000F4D34037F2E7117892F840C0A1F1800E99
:103DE000ACF1800C102C56D012F1010217F801AB87
:103DF00040F29B511CFB01F14FEAE17801EB98582E
:103E00000AEBA821C1F30908924918F801800BF8C0
:103E1000018B40F2DB211CFB01FC0EEB4E0808EB92
:103E2000CE010CEB41114FEAE17C01EB9C5CAAEB6B
:103E3000AC21C1F3090C87491CF801C08BF800C004
:103E400040F2167C1EFB0CF14FEAE17C01EB9C5C1E
:103E50000AEBAC21C1F3090C7E495B1C1CF801C0C4
:103E60008BF801C00BF1020BA342B4D309F101019D
:103E70008946B14299D3417B002950D04A0009922A
:103E800001228A40A11A01EB41010691416E119174
:103E9000002141E044E0082B00D1383703F0010154
:103EA0000A44A3E7002132E00199476E01FB04E1D7
:103EB0004FF0000901EB41013944CB46DA464F4649
:103EC00011E000230AE000BF11F8018B5B1CC24423
:103ED00011F8018BC34411F8018BC1449342F3D311
:103EE000069B7F1C19449742EBD3099B2AFA03F1E6
:103EF000119B1970099F11992BFA07F34B70099FB9
:103F000029FA07F38B70C91C11910EEB02018E4642
:103F1000A142C9D3019911440191B142C2D359E0E0
:103F20008846816E14FB06110A7891F84010A2F1C0
:103F3000800BA1F1800E002149E0826EB9F1080FDB
:103F400000D1803200273EE012F8403B40F29B5CFB
:103F50001EFB0CF14FEAE17C01EB9C5103EBA1212C
:103F6000C1F3090C3B4908F1010A1CF801C088F8AB
:103F700000C040F2DB2C1EFB0CFC0BEB4B0808EBEB
:103F8000CB010CEB41114FEAE17C01EB9C51A3EB1F
:103F9000A121C1F3090C2F491CF801C08AF800C007
:103FA00040F2167C1BFB0CF14FEAE17C01EB9C51CB
:103FB00003EBA121C1F3090326490AF102080837DE
:103FC0005B5C8AF80130A742BED309F1080189463B
:103FD000B142B2D3417BCC40A5421CD2416E0026F7
:103FE0000A4615E000230CE011F8017B02F8017B82
:103FF00011F8017B02F8017B11F8017B02F8017BCB
:104000005B1CAB42F0D3631B03EB43031944761CE8
:10401000049B9E42E6D3416E049A0B46554300BF73
:1040200011F8012B11F8014B02F0F802120204F012
:10403000FC0442EAC40211F8014B6D1E42EAD402AC
:1040400023F8022BECD1149B0FAA416E9847C0B203
:10405000A8E60000C6A300081CB55B1A5B1C049C04
:104060001BB2CDE90034121A521C13B20AB201B2CB
:10407000014803F009FA1CBDC81B002038B5806F49
:10408000144621B16B4605F00AF9009838BD8168E5
:10409000214404F035FF08B1002038BD204638BD6A
:1040A0001CB501211E20CDE90001044826232F2143
:1040B000027803A004F038FC1CBD0000240000209E
:1040C000303A2F476469722E6A706700F8B5094D5F
:1040D00000244FF4784600BF04F10D00009603B2AF
:1040E0006A782978044802F031FE641C042CF3DD60
:1040F000F8BD000025000020C81B002000207047EC
:104100004FF0FF3104F012B87CB50F4C0546227811
:10411000972A01D3002D16D04D2A01D8002D12D197
:1041200000211E20CDE9000126232F21074803F09E
:10413000ABF920780DB1253800E025302070BDE8BE
:104140007C40FFF7ADBF7CBD24000020C81B0020D1
:10415000F8B51E4C05462078C52801D3032D34D070
:10416000262801D8022D30D06078A12801D3012D56
:104170002BD06D2801D8002D27D000264FF6FF77D1
:1041800006F10D00009703B262782178104802F022
:10419000DDFD761C042EF3DD35B1012D07D0022D97
:1041A00009D0032D0AD00CE06078343801E0607843
:1041B0003430607005E02078353801E02078353003
:1041C0002070BDE8F840FFF781BFF8BD2500002052
:1041D000C81B00200A460146014802F0F4BC00005A
:1041E000081C00201CB5054A0549CDE9001201460E
:1041F000044B054A054802F0BBFC1CBD794A000887
:1042000065450008814500088D4D0008081C002008
:1042100013460AB201B2014803F07CBEC81B00205D
:1042200008B5009313B20AB201B2024803F052FC7F
:1042300008BD0000C81B00201CB51BB212B2CDE99E
:104240000023049C0AB201B22346024803F0EAFCB0
:104250001CBD0000C81B002010B50D4C0B48617838
:1042600000EB011001684A69808942404A6105F00B
:1042700041FEE168884207D92078002804D160789F
:10428000BDE8104000F000BE10BD0000ECBB00080F
:104290002C0000201CB5054A0549CDE90012014655
:1042A0000023044A044802F063FC1CBD4549000891
:1042B00049450008794D0008081C00201CB5054A36
:1042C0000549CDE9001201460023044A044802F0E2
:1042D0004FFC1CBD554800082D450008DD4C00086A
:1042E000081C00202DE9F74F16460D465CE0112E04
:1042F00053D315F8010BA6F1110A070900F00F04BA
:1043000010F0EE0F49D110210098FFF717FC0600BE
:104310003AD0009800EBC40000EB870B0020044665
:10432000CBF8246015F8011B3154401C0C441028B4
:10433000F8D361000098FFF701FC030024D00020AF
:1043400001460A464FF6FF79CBF8343016F801C023
:1043500005E000BF23F81200401C80B2521CBCF1E3
:10436000010CF7D2491C09EA40001029EED3A245FE
:1043700013D3AAEB040621460098FFF7DFFB18B120
:104380000021CBF844000DE00320BDE8FE8F00BF04
:1043900015F8012B1FB90B2A01D90620F5E700F803
:1043A000012B491CA142F3D3002EA0D10020ECE741
:1043B00038B5538810880B4D1B1A5B1C9CB2D388F0
:1043C00092880091A98B9B1A11442A8B5B1C104484
:1043D000054A9BB289B2156980B22246A8470020DF
:1043E00038BD0000740000209C00002010B503F0D0
:1043F0000BFFBDE8104003F05DBE00001CB5054A90
:104400000549CDE9001201460023044A044802F0A0
:10441000AFFB1CBD5547000811450008994C00082A
:10442000081C00202DE9F84F10880C465188814661
:10443000081A401C1FFA80F8D08891881546401A47
:10444000401C1FFA80FA0027DFF878B034E0A98812
:10445000DBF80C0039444843C0F34F30014600906C
:104460000022484605F0C2FA08B1002620E004EB1D
:1044700048041FE02988DBF80C0031444843C0F3AE
:104480004F3081460122009905F0B0FA68B1BBF8BF
:104490001C30009922881944BBF8183089B203EB0C
:1044A0000900094B80B25B689847A41C761CB6B221
:1044B0004645DFD37F1CBFB25745C8D30020BDE8B7
:1044C000F88F0000740000209C0000201CB5054AF5
:1044D0000549CDE9001201460023044A044802F0D0
:1044E00047FB1CBD1D470008F5440008294C000887
:1044F000081C002010B505223221002003F03AFFED
:10450000BDE810400021014803F040BAC81B00205C
:1045100010B505223221002003F02CFFBDE8104029
:104520000021014803F032BAC81B002010B5052253
:104530003221002003F01EFFBDE810400021014899
:1045400003F024BAC81B002010B505223221002038
:1045500003F010FFBDE810400021014803F016BA37
:10456000C81B002010B505223221002003F002FFF5
:10457000BDE810400021014803F008BAC81B002024
:104580007CB5214C607800282CD12078002829D1D6
:104590001E4803F079F8002824D01D4D2878401CCF
:1045A000C2B22A70092A1ED31AA11E4803F0B8FE0F
:1045B0006078002816D10422322103F0DBFE1AA015
:1045C00003F08AFDF0200125CDE900050346002215
:1045D000114617A004F0A8F901223221104603F079
:1045E000C9FE65707CBD04223221002003F0C2FEAA
:1045F0002978064803F004F802B00122BDE87040B3
:104600003221104603F0B6BE28000020541B0020C3
:1046100021000020796F75206F766572203A202581
:10462000640D0A001C1C0020436F6E6E65637400ED
:10463000303A2F4777696E2E6A70670030B50D00EB
:104640002DED028B83B002D023498D4206D903B0F1
:10465000BDEC028BBDE8304000F016BC1F4C9FED56
:10466000208A607001202070D4E9011088421ED099
:1046700000210091FF2201911A4B1146FEF748FFDD
:1046800000EE105AA068B8EE400AC8EE000ABCEE70
:10469000E00A10EE101AFEF7E9FF0121A068FEF70C
:1046A00027FBA068606003B0BDEC028B30BD00EE5C
:1046B000105AB8EE400AC8EE000ABCEEE00A10EE4E
:1046C000101AFEF7D3FFA06803B00121BDEC028BE6
:1046D000BDE83040FEF70CBB20A107002C000020F5
:1046E0000024F4485942000810B5144619B114B119
:1046F000084A914203D9BDE8104000F0C5BBFFF75E
:104700009DFF05F0F7FB01190348C160002101700E
:1047100010BD000020A107002C000020074A10B5A2
:1047200090420AD1032908D105A003F0D5FCBDE8C9
:1047300010400221064802F0A9BA10BD001B00205B
:1047400042617474436861726765456E640000007D
:10475000081C00202DE9F041044629480D468442FA
:1047600007D1092D05D127A003F0B6FC0120FFF7E2
:10477000CBFC2848844207D1092D05D121A003F0A4
:10478000ABFC0020FFF7C0FC2348244F844219D122
:10479000092D17D11BA003F09FFC2148214E007862
:1047A0004D2809D072281AD005211F4802F06EFA50
:1047B000BC420BD0BDE8F0810020707003211A4884
:1047C00002F064FABC42F5D1092DF3D10DA003F03B
:1047D00083FCBDE8F0410121134802F057BA0120E3
:1047E000707002460F4911A003F0B6FC307813A197
:1047F0003038C2B23270164803F092FD0421D4E77B
:10480000801A002053696E676C65427574746F6E10
:1048100000000000A01A0020001B0020201B002028
:104820002400002021000020081C0020303A2F4CDA
:104830006576656C4441542E747874004C6F6164E5
:10484000696E67204C6576656C3A25640D0A000038
:104850001C1C002070B505462D480C46854207D12A
:10486000092C05D12BA003F037FC0020FFF770FCCA
:104870002C48854207D1092C05D126A003F02CFC39
:104880000120FFF765FC2848854207D1092C05D196
:1048900020A003F021FC0220FFF75AFC23488542A8
:1048A00007D1092C05D11BA003F016FC0320FFF74C
:1048B0004FFC1F48854208D1092C06D115A003F0F2
:1048C0000BFC02211B4802F0E1F91B4885421ED176
:1048D000092C1CD10FA003F0FFFB184918484A7897
:1048E00009786D2A05D03522263991FBF2F1491D50
:1048F00004E03422263991FBF2F1491C01700021B9
:104900004170BDE8704004210A4802F0BFB970BD93
:10491000801A002053696E676C65427574746F6EFF
:1049200000000000A01A0020C01A0020E01A002099
:10493000201B0020081C0020001B00202500002058
:10494000210000202DE9FC4105463648DFF8D880DB
:104950001E26364C4FF47847854201D109290DD0E7
:1049600045455CD1092931D0032958D130A003F045
:10497000B3FBBDE8FC41324802F035B9207818B3EA
:1049800030A003F0A9FB0021324802F093FA32492B
:10499000304802F01EFC01212E4802F087FA3C222A
:1049A0001E212C4803F0D2FA3223282278212948EC
:1049B000CDE9006702F068FD28A1264803F0B0FCAD
:1049C0000020207003F082FB454528D12078002884
:1049D00025D11CA003F080FB00211E4802F06AFADA
:1049E0001D491C4802F0F5FB01211A4802F05EFA4D
:1049F0003C221E21174803F0A9FA322328227821ED
:104A00001448CDE9006702F03FFD18A1114803F0FA
:104A100087FC01202070BDE8FC4103F057BBBDE8D6
:104A2000FC810000001B0020201B0020270000202C
:104A300042617474436861726765456E640000008A
:104A4000081C002053696E676C65427574746F6E44
:104A500000000000C81B002008B50008566F6C75E8
:104A60006D65203A204F464600000000566F6C7579
:104A70006D65203A204F4E002DE9FC4705464C4815
:104A80000C464FF00008417819B180F801800221EE
:104A900081E082460078DFF81C910126002830D1A1
:104AA0004548B71E854208D1092C06D143A003F022
:104AB00013FB89F8037089F804804448854208D1C3
:104AC000092C06D13DA003F007FB89F8036089F8A3
:104AD00004803F48854208D1092C06D137A003F055
:104AE000FBFA89F8038089F804703A48854208D1B6
:104AF000092C06D131A003F0EFFA89F8038089F878
:104B000004603548854227D1032C0DD133A003F032
:104B1000E3FA50208AF80060CDE900060246A0239F
:104B2000282132A003F000FF9AF80000564698B101
:104B3000092C11D121A003F0CFFA86F800800027BC
:104B40000026324639461B4802F030FD761C0A2EFC
:104B5000F7DB7F1C0A2FF3DB2848854226D19AF821
:104B600000005546002821D0092C19D0032C1DD156
:104B70001AA003F0B1FA224985F8008001220878D2
:104B8000303008701FA003F04BFA09F1070121A093
:104B900003F062FA0321BDE8FC47224802F076B830
:104BA00006A003F099FA85F80080F3E7BDE8FC87DA
:104BB00028000020541B0020801A002053696E67D3
:104BC0006C65427574746F6E00000000A01A0020BE
:104BD000C01A0020E01A0020201B002042617474DB
:104BE000436861726765456E64000000303A2F4784
:104BF0006E6F74652E6A706700000000001B002055
:104C000021000020303A2F4C6576656C4441542ECB
:104C100074787400303A2F4D6170536176652E744C
:104C200078740000081C00201CB5052232210120E8
:104C300003F0A0FB10A10A20CDE900014FF4784356
:104C4000B422BE211E20FEF743FF052232210020A0
:104C500003F090FBF0200121CDE900010346002282
:104C6000114609A003F060FE02B005223221BDE822
:104C70001040012003F07EBB4C6F6164696E672EAB
:104C80002E2E2E2E2E000000303A2F4749726F6EC6
:104C90002E6A7067000000001CB50B494D200022F1
:104CA0000870F0200121CDE900010346114607A05C
:104CB00003F03AFEFFF7F4F902B005223221BDE815
:104CC0001040012003F056BB24000020303A2F474B
:104CD0006D61737465722E6A706700002DE9FC4780
:104CE0001F4C2620012120706D206070F020CDE93E
:104CF00000010346002211461AA003F015FE00260B
:104D0000A1464FF6FF7A06EB8600002400EBC608AA
:104D10000025352004FB00F7CDF800A099F801200C
:104D200099F8000002EB88010AB2384401B205F19B
:104D30000D0003B20F4802F009F86D1C042DEBD9E9
:104D4000641C042CE4D3761C022EDCDBFFF7BEF9D6
:104D500002B00A22BDE8F0473221012003F00ABB6D
:104D600025000020303A2F476C6576656C2E6A70FE
:104D700067000000C81B002010B5FEF7C1FD0A2225
:104D80003221BDE81040012003F0F4BA0A4810B502
:104D90000021017041700948427852B141700848C1
:104DA00002F02EFC0A223221BDE81040012003F05F
:104DB000E1BA0178F3E7000028000020210000207C
:104DC000541B002010B503F07BFA03F0E1F903F067
:104DD000BFF903F01DF90A4C084A42F2107120464F
:104DE000FEF728FB01212046FDF782FF03F0F2FACF
:104DF000BDE8104003A003F06FB90000ED430008C8
:104E00000008004053746172747570002DE9F0471A
:104E10000546067BD5E90004884621780027B94677
:104E2000FEB960B1641C401EB9F1000F15D02178A5
:104E30004FF0000971B16FF00500BDE8F087AC6874
:104E40006B6F4FF480622146284698470028EAD1CC
:104E5000801EF2E7FF21217002E02178FF290FD0A8
:104E600080267F00314200D07F1C7608A8F101081F
:104E7000B8F1000FD4D12E73C5E900043846DCE741
:104E80004FF00109F4E7000070B5064C054600211B
:104E9000A068FDF72DFF0021284603F0BFFE00208B
:104EA000207070BD2C0000202DE9F84F04468A4682
:104EB000057BD4E900018846097800269B46174601
:104EC0004FF0100900960DBB50B108F10108009990
:104ED000401EB1B10021009198F80010A1BB0CE078
:104EE000D4F80880636F4FF48062414620469847AB
:104EF0000028ECD1801EBDE8F88FFF2188F8001053
:104F000003E098F80010FF2912D08025760029428E
:104F100000D0761C1AF8012B6D0882B137F8023BDD
:104F2000B34208D12573C4E900089BF80000E2E70A
:104F30000122009205E00BF1010B521EEED1A9F106
:104F40000109B9F1000FBED16FF00500D3E70000F1
:104F50002DE9FF5F0446466E807BE17B10FB01F785
:104F6000A16E002507F10209039197E0BD4202D22C
:104F70004FF0000A06E0E81B401C5FEA000A01D07F
:104F8000012000E0002004EBC0008346436C426B2C
:104F9000416A2046FFF788FFB0F1000802DAC8F145
:104FA000000057E004EB4A000190B0F914000090B3
:104FB00013D041462046FFF729FF002849DBA8F11E
:104FC000010101228A40104202D1A0EB4200401CA4
:104FD0000099084401990090888204EB0A00007C43
:104FE00004EB8000D0F854A00098DAF80010414398
:104FF000081230600120002146F82010401C402893
:10500000FAD3DBF828000090DBF838000190DBF8D9
:1050100048004FF0010802909DE80E002046FFF77F
:1050200043FF00282FD014DB010907D08844B8F1D2
:10503000400F03D3062004B0BDE8F09F00F00F003E
:105040005FEA000B1AD001462046FFF7DFFE00287A
:1050500002DA4042C0B2EEE7ABF101020121914019
:10506000084202D1A0EB4100401C144A12F808107B
:105070005AF821204243101246F8210008F1010895
:10508000B8F1400FC8D3607B03280CD03046039999
:10509000FEF762FD039840306D1C0390A9453FF672
:1050A00065AF0020C7E73068C11700EB11608021B1
:1050B00001EB202003990870ECE7000006A300082C
:1050C0007CB50125069C9BB2A4B292B289B2CDE90F
:1050D000004503F029FC7CBD02F0D6BF2DE9F84F56
:1050E00004460027762084F89800C4F88470C4F839
:1050F0008870C4F88C70C4F890703E46B9463D463E
:1051000004F18400C4F89470FDF7F0FB0320FDF770
:1051100017FC5748016841F48071016004F19C005C
:105120004FF48068CDF80000C4F89C50C4F8A0503B
:10513000C4F8A450C4E92A580098FDF7EDFB2046B6
:1051400001F0F6FB28B17F1CFFB24A2FECD3BDE87B
:10515000F88F4FF4D570C4F89C0008204FF0400B36
:10516000C4E9280BC4E92A5847460098FDF7D4FB48
:10517000204600F0FFFA20B9012084F858004FF0D3
:1051800080494FF0370AC4F8A4B0C4E9275AC4E9EB
:105190002A57D8460098FDF7BFFB3721204600F07C
:1051A00043FA01004FF6FF7032D0AA46B946454691
:1051B0000127DFF8C08083463BE000BFC4E9275BDE
:1051C000C4F8ACA0C4E92975D0460098FDF7A4FB4B
:1051D0003721204600F028FA0028B8D1264949EAAC
:1051E0000100C4F89C002920C4E92807C4E92A5812
:1051F0000098FDF791FB204600F066FA0028A6D142
:105200001B491031096806F10106CA0F04D007E0F6
:10521000D346BA464746D1E74FF6FF729642CDD302
:105220004FF6FF7296421DD211F0804F8FD00221AF
:105230001BE0C4F89C80C4E92875C4E92AA9009839
:10524000FDF76AFB204600F03FFA0028C5D1084967
:105250001031096806F10106C90F01D15E45E8D396
:105260005E4501D31B2072E7032184F858106EE7D6
:10527000042C01400080FF80000010802DE9FC47D5
:105280000025044600952E46019501B102261E48D0
:105290000068800102D50E20BDE8FC87B4F87C00D0
:1052A0006A4681B2204601F015FA0028F4D101982F
:1052B000400327D5B4F87C004FF040080004C4F840
:1052C0009C003720C4E928084FF48067C4E92A57B6
:1052D00004F19C008146FDF71FFB3721204600F0BA
:1052E000A3F90028D8D10620C4F8A480C4E9276017
:1052F000C4E92A574846FDF70FFB0621204600F077
:1053000093F9C9E72520C7E7142C01402DE9FC5F7C
:10531000894683460027D40D5502984689074FF4E5
:10532000007019D00026824613E07002421944EB47
:10533000E073CDF800A01449584600F027F807465E
:10534000524611494846FBF75AFA761C09F500798E
:10535000F6B24645E9D30BE0B8F1010F0BD0CDE929
:1053600000082A4623464946584600F095FE07465F
:105370003846BDE8FC9F00902A46234649465846D9
:1053800000F004F8F3E70000601300202DE9FE4F61
:1053900090460C9D0F0004464FF0FF3673D0DFF8A7
:1053A00004A20021CAF8001094F85800022804D181
:1053B00005024FEA582040EAC3588B460846C4F815
:1053C000B8104FF0FF31C4E92C104FF00109C4F8B8
:1053D000BC00C4E9300904F1B0000290FDF756FAB0
:1053E000704818380068800102D50E20BDE8FE8F95
:1053F000681EB0F5006F46D2054244D129462046CA
:1054000001F060F901901020C4E927504020C4E960
:10541000290B0001C4F8AC0004F19C000090FDF7DA
:105420007BFA1021204600F0FFF80028DED1019819
:105430000001C4E92D50C4F8C4904FF0FF30C4F807
:10544000B0000220C4E92F0BD9469C340298FDF726
:105450001DFA1120E4E802804020E4E8020900017E
:1054600044F8AC090098FDF757FA1121204600F0E6
:10547000DBF85FEA0008B9D194F8800028B1012870
:105480005ED088E0FFE72620B0E7FAF72BFFDFF8D1
:105490001491444C09F154094FF4004BDFF808A172
:1054A000083440F22A6511E05846FDF707FA50B17A
:1054B000002049460A6847F82020401C0828F9D3F4
:1054C0005646203702E0002E69D0761E206828421A
:1054D000EAD00820FDF7F2F918B10820FDF7D0F95D
:1054E0005DE00220FDF7EAF920B10220FDF7C8F9DE
:1054F00002207BE72020FDF7E1F920B12020FDF715
:10550000BFF9062072E74FF400742046FDF7D6F984
:1055100038B12046FDF7B4F9072067E7206801C7D6
:1055200002E04C464FF400152846FDF7C7F9002865
:10553000F4D1FAF7D9FE40F2FF50FDF7A1F92AE0C5
:1055400084F8829084F8819084F883901548103014
:10555000016840F22A3211430160DAF8001041F08C
:105560000801CAF8001000232A463946204600F0F8
:105570001FF90E4800E0761E0168090105D494F871
:10558000831011B994F8821039B146B194F88200B1
:1055900008B194F88280404628E7002EEBD1042021
:1055A00024E700002C2C0140FFFF7F000064024034
:1055B0002DE9FC4782460020D40D550288468A0713
:1055C0001F464FF4007119D00026894612E04A4662
:1055D00041461448FBF713F97002421944EBE0739B
:1055E000CDF800900F49504600F01EF9761C08F5E2
:1055F0000078F6B2BE42EAD3BDE8FC87012F08D09E
:10560000CDE900132A4623464146504600F086FE67
:10561000F2E700912A4623464146504600F004F93D
:10562000EAE700006013002010B50C461349086833
:1056300010F0450FFBD00420FDF740F920B1042005
:10564000FDF71EF9032010BD0120FDF737F920B149
:105650000120FDF715F9012010BD08482438006825
:10566000A04201D0102010BD40F2FF50FDF708F914
:1056700002482038006800F0080010BD342C0140BA
:1056800010B500244FF480310E4A09E0106810F084
:10569000450F05D009B1400705D5032404200CE0CF
:1056A000491EF3D2F7E70120FDF708F918B10124EC
:1056B0002046FDF7E5F840F2FF50FDF7E1F82046FF
:1056C00010BD0000342C014010B50A49086810F0E4
:1056D000450FFBD00420FDF7F1F820B10420FDF7C1
:1056E000CFF8032010BD40F2FF50FDF7C9F80020AD
:1056F00010BD0000342C014070B50E461C49154603
:105700000024086810F0450FFBD00420FDF7D6F800
:1057100020B10420FDF7B4F8032070BD0120FDF78F
:10572000CDF820B10120FDF7ABF8012070BD104885
:1057300024380068B04212D140F2FF50FDF7A0F8C3
:105740000B482038016811F4604F03D0880404D559
:10575000132070BD080C288007E0480401D51020F4
:1057600070BD080401D50F2070BD204670BD00003B
:10577000342C014010B500244FF480310B4809E06F
:10578000026812F0450F05D009B1500705D5032472
:10579000042006E0491EF3D2F7E7500603D50024A3
:1057A0004020FDF76DF8204610BD0000342C01406C
:1057B00070B51B4C90B01D460E462046FCF7F6FC1B
:1057C0000028FAD12046FCF755FC4FF0006000900D
:1057D0000021CDE903511348CDE901060015CDE9BB
:1057E0000510800007908000CDE908014FF440309B
:1057F0000A9004200B9003200C904FF400000D90B1
:1058000080100E9069462046FCF7D8FC20212046E7
:10581000FCF7C2FC01212046FCF722FC10B070BD51
:1058200058640240802C01402DE9F04F85B04FF0C4
:1058300000060E9D91469A460F0004468DF80060C2
:10584000B04604955AD0B4480660701EC4F8B860DB
:10585000C4E92C060120C4F8BC60C4E9306004F13E
:10586000B0000390FDF712F8AB48183800688001CB
:1058700003D50E2005B0BDE8F08F94F8580002283B
:105880003ED0681EB0F5006F38D2681E054235D193
:105890002946204600F016FF02904FF0400B1020E2
:1058A000C4F8A4B0C4E927508001C4E92A6004F117
:1058B0009C000190FDF730F810212046FFF7B4FE60
:1058C0000028D7D1B4F87C00B2460004C4F89C008C
:1058D0000D20C4E9280B4FF48060C4E92A600198C8
:1058E000FDF71AF80D212046FFF79EFE0028C1D1D2
:1058F0008949183908684FF0FF3622E02620B9E7B9
:105900004FEA59204FF4007540EACA59BDE700BF7D
:10591000B4F87C00761E0004C4F89C000D20C4E995
:10592000280B4FF48060C4E92AA00198FCF7F4FF2B
:105930000D212046FFF778FE00289BD176481838C5
:105940000068C00502D4002EE2D132E086B31820F0
:10595000C4F89C90C4E9280B4FF48060C4E92AA0E5
:1059600056460198FCF7D8FF18212046FFF75CFE49
:105970000028C4D184F8816002994FF0FF3A0901F0
:10598000C4F8B0A0C4E92D5130460121C4F8BC00D0
:10599000C4E93001B146564680340398FCF776FFDF
:1059A00014F8800940F2FF5B28B1012869D0A2E019
:1059B000FFE729205EE7FAF795FCDFF85CA1564D7A
:1059C0000AF1540A083540F21A6929E04FF4804080
:1059D000FCF774FF10B30498A0EB080020280FD246
:1059E00081074FEA900100D0491C0020524604E094
:1059F00008CF136008F10408401C8842F8D30AE07D
:105A00000020514657F820200A60401C0828F9D38E
:105A100008F1200820376FF0404601E07EB3761E83
:105A2000286810EA090FD1D00820FCF747FF18B109
:105A30000820FCF725FF5CE00220FCF73FFF20B1C7
:105A40000220FCF71DFF022014E71020FCF736FFB0
:105A500020B11020FCF714FF05200BE74FF4007570
:105A60002846FCF72BFF20B12846FCF709FF07204A
:105A700000E7FAF739FC5846FCF702FF3BE038E054
:105A8000FFE784F8829084F8819084F8839022481C
:105A90001030016840F21A321143016040232A4657
:105AA00039462046FFF784FE1B48016841F0080193
:105AB00001601A4800E0761E0168090102D4002E38
:105AC000F9D102E00EB1504604E0204600F0A4FEF9
:105AD0000FE0401E94F8831011B994F8821031B190
